{
  "_format": "hh-sol-artifact-1",
  "contractName": "CarRentalNFT",
  "sourceName": "contracts/Contract.sol",
  "abi": [
    {
      "inputs": [
        {
          "internalType": "string",
          "name": "_name",
          "type": "string"
        },
        {
          "internalType": "string",
          "name": "_symbol",
          "type": "string"
        }
      ],
      "stateMutability": "nonpayable",
      "type": "constructor"
    },
    {
      "anonymous": false,
      "inputs": [
        {
          "indexed": true,
          "internalType": "address",
          "name": "owner",
          "type": "address"
        },
        {
          "indexed": true,
          "internalType": "address",
          "name": "approved",
          "type": "address"
        },
        {
          "indexed": true,
          "internalType": "uint256",
          "name": "tokenId",
          "type": "uint256"
        }
      ],
      "name": "Approval",
      "type": "event"
    },
    {
      "anonymous": false,
      "inputs": [
        {
          "indexed": true,
          "internalType": "address",
          "name": "owner",
          "type": "address"
        },
        {
          "indexed": true,
          "internalType": "address",
          "name": "operator",
          "type": "address"
        },
        {
          "indexed": false,
          "internalType": "bool",
          "name": "approved",
          "type": "bool"
        }
      ],
      "name": "ApprovalForAll",
      "type": "event"
    },
    {
      "anonymous": false,
      "inputs": [
        {
          "indexed": false,
          "internalType": "uint256",
          "name": "newItemId",
          "type": "uint256"
        }
      ],
      "name": "Minted",
      "type": "event"
    },
    {
      "anonymous": false,
      "inputs": [
        {
          "indexed": true,
          "internalType": "address",
          "name": "previousOwner",
          "type": "address"
        },
        {
          "indexed": true,
          "internalType": "address",
          "name": "newOwner",
          "type": "address"
        }
      ],
      "name": "OwnershipTransferred",
      "type": "event"
    },
    {
      "anonymous": false,
      "inputs": [
        {
          "indexed": true,
          "internalType": "address",
          "name": "from",
          "type": "address"
        },
        {
          "indexed": true,
          "internalType": "address",
          "name": "to",
          "type": "address"
        },
        {
          "indexed": true,
          "internalType": "uint256",
          "name": "tokenId",
          "type": "uint256"
        }
      ],
      "name": "Transfer",
      "type": "event"
    },
    {
      "inputs": [
        {
          "internalType": "uint256",
          "name": "",
          "type": "uint256"
        }
      ],
      "name": "_tokenURIs",
      "outputs": [
        {
          "internalType": "string",
          "name": "",
          "type": "string"
        }
      ],
      "stateMutability": "view",
      "type": "function"
    },
    {
      "inputs": [
        {
          "internalType": "address",
          "name": "to",
          "type": "address"
        },
        {
          "internalType": "uint256",
          "name": "tokenId",
          "type": "uint256"
        }
      ],
      "name": "approve",
      "outputs": [],
      "stateMutability": "nonpayable",
      "type": "function"
    },
    {
      "inputs": [
        {
          "internalType": "address",
          "name": "owner",
          "type": "address"
        }
      ],
      "name": "balanceOf",
      "outputs": [
        {
          "internalType": "uint256",
          "name": "",
          "type": "uint256"
        }
      ],
      "stateMutability": "view",
      "type": "function"
    },
    {
      "inputs": [
        {
          "internalType": "uint256",
          "name": "tokenId",
          "type": "uint256"
        }
      ],
      "name": "burn",
      "outputs": [],
      "stateMutability": "nonpayable",
      "type": "function"
    },
    {
      "inputs": [
        {
          "internalType": "uint256",
          "name": "tokenId",
          "type": "uint256"
        }
      ],
      "name": "getApproved",
      "outputs": [
        {
          "internalType": "address",
          "name": "",
          "type": "address"
        }
      ],
      "stateMutability": "view",
      "type": "function"
    },
    {
      "inputs": [
        {
          "internalType": "address",
          "name": "owner",
          "type": "address"
        },
        {
          "internalType": "address",
          "name": "operator",
          "type": "address"
        }
      ],
      "name": "isApprovedForAll",
      "outputs": [
        {
          "internalType": "bool",
          "name": "",
          "type": "bool"
        }
      ],
      "stateMutability": "view",
      "type": "function"
    },
    {
      "inputs": [
        {
          "internalType": "address",
          "name": "recipient",
          "type": "address"
        },
        {
          "internalType": "string",
          "name": "tokenURI",
          "type": "string"
        }
      ],
      "name": "mintNFT",
      "outputs": [
        {
          "internalType": "uint256",
          "name": "",
          "type": "uint256"
        }
      ],
      "stateMutability": "payable",
      "type": "function"
    },
    {
      "inputs": [],
      "name": "name",
      "outputs": [
        {
          "internalType": "string",
          "name": "",
          "type": "string"
        }
      ],
      "stateMutability": "view",
      "type": "function"
    },
    {
      "inputs": [],
      "name": "owner",
      "outputs": [
        {
          "internalType": "address",
          "name": "",
          "type": "address"
        }
      ],
      "stateMutability": "view",
      "type": "function"
    },
    {
      "inputs": [
        {
          "internalType": "uint256",
          "name": "tokenId",
          "type": "uint256"
        }
      ],
      "name": "ownerOf",
      "outputs": [
        {
          "internalType": "address",
          "name": "",
          "type": "address"
        }
      ],
      "stateMutability": "view",
      "type": "function"
    },
    {
      "inputs": [],
      "name": "renounceOwnership",
      "outputs": [],
      "stateMutability": "nonpayable",
      "type": "function"
    },
    {
      "inputs": [
        {
          "internalType": "address",
          "name": "from",
          "type": "address"
        },
        {
          "internalType": "address",
          "name": "to",
          "type": "address"
        },
        {
          "internalType": "uint256",
          "name": "tokenId",
          "type": "uint256"
        }
      ],
      "name": "safeTransferFrom",
      "outputs": [],
      "stateMutability": "nonpayable",
      "type": "function"
    },
    {
      "inputs": [
        {
          "internalType": "address",
          "name": "from",
          "type": "address"
        },
        {
          "internalType": "address",
          "name": "to",
          "type": "address"
        },
        {
          "internalType": "uint256",
          "name": "tokenId",
          "type": "uint256"
        },
        {
          "internalType": "bytes",
          "name": "_data",
          "type": "bytes"
        }
      ],
      "name": "safeTransferFrom",
      "outputs": [],
      "stateMutability": "nonpayable",
      "type": "function"
    },
    {
      "inputs": [
        {
          "internalType": "address",
          "name": "operator",
          "type": "address"
        },
        {
          "internalType": "bool",
          "name": "approved",
          "type": "bool"
        }
      ],
      "name": "setApprovalForAll",
      "outputs": [],
      "stateMutability": "nonpayable",
      "type": "function"
    },
    {
      "inputs": [
        {
          "internalType": "bytes4",
          "name": "interfaceId",
          "type": "bytes4"
        }
      ],
      "name": "supportsInterface",
      "outputs": [
        {
          "internalType": "bool",
          "name": "",
          "type": "bool"
        }
      ],
      "stateMutability": "view",
      "type": "function"
    },
    {
      "inputs": [],
      "name": "symbol",
      "outputs": [
        {
          "internalType": "string",
          "name": "",
          "type": "string"
        }
      ],
      "stateMutability": "view",
      "type": "function"
    },
    {
      "inputs": [
        {
          "internalType": "uint256",
          "name": "tokenId",
          "type": "uint256"
        }
      ],
      "name": "tokenURI",
      "outputs": [
        {
          "internalType": "string",
          "name": "",
          "type": "string"
        }
      ],
      "stateMutability": "view",
      "type": "function"
    },
    {
      "inputs": [
        {
          "internalType": "address",
          "name": "from",
          "type": "address"
        },
        {
          "internalType": "address",
          "name": "to",
          "type": "address"
        },
        {
          "internalType": "uint256",
          "name": "tokenId",
          "type": "uint256"
        }
      ],
      "name": "transferFrom",
      "outputs": [],
      "stateMutability": "nonpayable",
      "type": "function"
    },
    {
      "inputs": [
        {
          "internalType": "address",
          "name": "newOwner",
          "type": "address"
        }
      ],
      "name": "transferOwnership",
      "outputs": [],
      "stateMutability": "nonpayable",
      "type": "function"
    }
  ],
  "bytecode": "0x60806040523480156200001157600080fd5b50604051620039533803806200395383398181016040528101906200003791906200041a565b6040518060400160405280601381526020017f4361722053686172696e672053657276696365000000000000000000000000008152506040518060400160405280600381526020017f43535300000000000000000000000000000000000000000000000000000000008152508160009080519060200190620000bb929190620001cd565b508060019080519060200190620000d4929190620001cd565b505050620000f7620000eb620000ff60201b60201c565b6200010760201b60201c565b505062000504565b600033905090565b6000600760009054906101000a900473ffffffffffffffffffffffffffffffffffffffff16905081600760006101000a81548173ffffffffffffffffffffffffffffffffffffffff021916908373ffffffffffffffffffffffffffffffffffffffff1602179055508173ffffffffffffffffffffffffffffffffffffffff168173ffffffffffffffffffffffffffffffffffffffff167f8be0079c531659141344cd1fd0a4f28419497f9722a3daafe3b4186f6b6457e060405160405180910390a35050565b828054620001db90620004ce565b90600052602060002090601f016020900481019282620001ff57600085556200024b565b82601f106200021a57805160ff19168380011785556200024b565b828001600101855582156200024b579182015b828111156200024a5782518255916020019190600101906200022d565b5b5090506200025a91906200025e565b5090565b5b80821115620002795760008160009055506001016200025f565b5090565b6000604051905090565b600080fd5b600080fd5b600080fd5b600080fd5b6000601f19601f8301169050919050565b7f4e487b7100000000000000000000000000000000000000000000000000000000600052604160045260246000fd5b620002e6826200029b565b810181811067ffffffffffffffff82111715620003085762000307620002ac565b5b80604052505050565b60006200031d6200027d565b90506200032b8282620002db565b919050565b600067ffffffffffffffff8211156200034e576200034d620002ac565b5b62000359826200029b565b9050602081019050919050565b60005b838110156200038657808201518184015260208101905062000369565b8381111562000396576000848401525b50505050565b6000620003b3620003ad8462000330565b62000311565b905082815260208101848484011115620003d257620003d162000296565b5b620003df84828562000366565b509392505050565b600082601f830112620003ff57620003fe62000291565b5b8151620004118482602086016200039c565b91505092915050565b6000806040838503121562000434576200043362000287565b5b600083015167ffffffffffffffff8111156200045557620004546200028c565b5b6200046385828601620003e7565b925050602083015167ffffffffffffffff8111156200048757620004866200028c565b5b6200049585828601620003e7565b9150509250929050565b7f4e487b7100000000000000000000000000000000000000000000000000000000600052602260045260246000fd5b60006002820490506001821680620004e757607f821691505b60208210811415620004fe57620004fd6200049f565b5b50919050565b61343f80620005146000396000f3fe6080604052600436106101145760003560e01c806370a08231116100a0578063b88d4fde11610064578063b88d4fde146103af578063c87b56dd146103d8578063e985e9c514610415578063eacabe1414610452578063f2fde38b1461048257610114565b806370a08231146102dc578063715018a6146103195780638da5cb5b1461033057806395d89b411461035b578063a22cb4651461038657610114565b80630bb78ec1116100e75780630bb78ec1146101e757806323b872dd1461022457806342842e0e1461024d57806342966c68146102765780636352211e1461029f57610114565b806301ffc9a71461011957806306fdde0314610156578063081812fc14610181578063095ea7b3146101be575b600080fd5b34801561012557600080fd5b50610140600480360381019061013b9190612011565b6104ab565b60405161014d9190612059565b60405180910390f35b34801561016257600080fd5b5061016b61058d565b604051610178919061210d565b60405180910390f35b34801561018d57600080fd5b506101a860048036038101906101a39190612165565b61061f565b6040516101b591906121d3565b60405180910390f35b3480156101ca57600080fd5b506101e560048036038101906101e0919061221a565b6106a4565b005b3480156101f357600080fd5b5061020e60048036038101906102099190612165565b6107bc565b60405161021b919061210d565b60405180910390f35b34801561023057600080fd5b5061024b6004803603810190610246919061225a565b61085c565b005b34801561025957600080fd5b50610274600480360381019061026f919061225a565b6108bc565b005b34801561028257600080fd5b5061029d60048036038101906102989190612165565b6108dc565b005b3480156102ab57600080fd5b506102c660048036038101906102c19190612165565b610938565b6040516102d391906121d3565b60405180910390f35b3480156102e857600080fd5b5061030360048036038101906102fe91906122ad565b6109ea565b60405161031091906122e9565b60405180910390f35b34801561032557600080fd5b5061032e610aa2565b005b34801561033c57600080fd5b50610345610b2a565b60405161035291906121d3565b60405180910390f35b34801561036757600080fd5b50610370610b54565b60405161037d919061210d565b60405180910390f35b34801561039257600080fd5b506103ad60048036038101906103a89190612330565b610be6565b005b3480156103bb57600080fd5b506103d660048036038101906103d191906124a5565b610bfc565b005b3480156103e457600080fd5b506103ff60048036038101906103fa9190612165565b610c5e565b60405161040c919061210d565b60405180910390f35b34801561042157600080fd5b5061043c60048036038101906104379190612528565b610c70565b6040516104499190612059565b60405180910390f35b61046c60048036038101906104679190612609565b610d04565b60405161047991906122e9565b60405180910390f35b34801561048e57600080fd5b506104a960048036038101906104a491906122ad565b610d3c565b005b60007f80ac58cd000000000000000000000000000000000000000000000000000000007bffffffffffffffffffffffffffffffffffffffffffffffffffffffff1916827bffffffffffffffffffffffffffffffffffffffffffffffffffffffff1916148061057657507f5b5e139f000000000000000000000000000000000000000000000000000000007bffffffffffffffffffffffffffffffffffffffffffffffffffffffff1916827bffffffffffffffffffffffffffffffffffffffffffffffffffffffff1916145b80610586575061058582610e34565b5b9050919050565b60606000805461059c90612694565b80601f01602080910402602001604051908101604052809291908181526020018280546105c890612694565b80156106155780601f106105ea57610100808354040283529160200191610615565b820191906000526020600020905b8154815290600101906020018083116105f857829003601f168201915b5050505050905090565b600061062a82610e9e565b610669576040517f08c379a000000000000000000000000000000000000000000000000000000000815260040161066090612738565b60405180910390fd5b6004600083815260200190815260200160002060009054906101000a900473ffffffffffffffffffffffffffffffffffffffff169050919050565b60006106af82610938565b90508073ffffffffffffffffffffffffffffffffffffffff168373ffffffffffffffffffffffffffffffffffffffff161415610720576040517f08c379a0000000000000000000000000000000000000000000000000000000008152600401610717906127ca565b60405180910390fd5b8073ffffffffffffffffffffffffffffffffffffffff1661073f610f0a565b73ffffffffffffffffffffffffffffffffffffffff16148061076e575061076d81610768610f0a565b610c70565b5b6107ad576040517f08c379a00000000000000000000000000000000000000000000000000000000081526004016107a49061285c565b60405180910390fd5b6107b78383610f12565b505050565b600960205280600052604060002060009150905080546107db90612694565b80601f016020809104026020016040519081016040528092919081815260200182805461080790612694565b80156108545780601f1061082957610100808354040283529160200191610854565b820191906000526020600020905b81548152906001019060200180831161083757829003601f168201915b505050505081565b61086d610867610f0a565b82610fcb565b6108ac576040517f08c379a00000000000000000000000000000000000000000000000000000000081526004016108a3906128ee565b60405180910390fd5b6108b78383836110a9565b505050565b6108d783838360405180602001604052806000815250610bfc565b505050565b6108ed6108e7610f0a565b82610fcb565b61092c576040517f08c379a000000000000000000000000000000000000000000000000000000000815260040161092390612980565b60405180910390fd5b61093581611310565b50565b6000806002600084815260200190815260200160002060009054906101000a900473ffffffffffffffffffffffffffffffffffffffff169050600073ffffffffffffffffffffffffffffffffffffffff168173ffffffffffffffffffffffffffffffffffffffff1614156109e1576040517f08c379a00000000000000000000000000000000000000000000000000000000081526004016109d890612a12565b60405180910390fd5b80915050919050565b60008073ffffffffffffffffffffffffffffffffffffffff168273ffffffffffffffffffffffffffffffffffffffff161415610a5b576040517f08c379a0000000000000000000000000000000000000000000000000000000008152600401610a5290612aa4565b60405180910390fd5b600360008373ffffffffffffffffffffffffffffffffffffffff1673ffffffffffffffffffffffffffffffffffffffff168152602001908152602001600020549050919050565b610aaa610f0a565b73ffffffffffffffffffffffffffffffffffffffff16610ac8610b2a565b73ffffffffffffffffffffffffffffffffffffffff1614610b1e576040517f08c379a0000000000000000000000000000000000000000000000000000000008152600401610b1590612b10565b60405180910390fd5b610b28600061131c565b565b6000600760009054906101000a900473ffffffffffffffffffffffffffffffffffffffff16905090565b606060018054610b6390612694565b80601f0160208091040260200160405190810160405280929190818152602001828054610b8f90612694565b8015610bdc5780601f10610bb157610100808354040283529160200191610bdc565b820191906000526020600020905b815481529060010190602001808311610bbf57829003601f168201915b5050505050905090565b610bf8610bf1610f0a565b83836113e2565b5050565b610c0d610c07610f0a565b83610fcb565b610c4c576040517f08c379a0000000000000000000000000000000000000000000000000000000008152600401610c43906128ee565b60405180910390fd5b610c588484848461154f565b50505050565b6060610c69826115ab565b9050919050565b6000600560008473ffffffffffffffffffffffffffffffffffffffff1673ffffffffffffffffffffffffffffffffffffffff16815260200190815260200160002060008373ffffffffffffffffffffffffffffffffffffffff1673ffffffffffffffffffffffffffffffffffffffff16815260200190815260200160002060009054906101000a900460ff16905092915050565b6000610d1060086116fd565b6000610d1c6008611713565b9050610d283382611721565b610d3281846118fb565b8091505092915050565b610d44610f0a565b73ffffffffffffffffffffffffffffffffffffffff16610d62610b2a565b73ffffffffffffffffffffffffffffffffffffffff1614610db8576040517f08c379a0000000000000000000000000000000000000000000000000000000008152600401610daf90612b10565b60405180910390fd5b600073ffffffffffffffffffffffffffffffffffffffff168173ffffffffffffffffffffffffffffffffffffffff161415610e28576040517f08c379a0000000000000000000000000000000000000000000000000000000008152600401610e1f90612ba2565b60405180910390fd5b610e318161131c565b50565b60007f01ffc9a7000000000000000000000000000000000000000000000000000000007bffffffffffffffffffffffffffffffffffffffffffffffffffffffff1916827bffffffffffffffffffffffffffffffffffffffffffffffffffffffff1916149050919050565b60008073ffffffffffffffffffffffffffffffffffffffff166002600084815260200190815260200160002060009054906101000a900473ffffffffffffffffffffffffffffffffffffffff1673ffffffffffffffffffffffffffffffffffffffff1614159050919050565b600033905090565b816004600083815260200190815260200160002060006101000a81548173ffffffffffffffffffffffffffffffffffffffff021916908373ffffffffffffffffffffffffffffffffffffffff160217905550808273ffffffffffffffffffffffffffffffffffffffff16610f8583610938565b73ffffffffffffffffffffffffffffffffffffffff167f8c5be1e5ebec7d5bd14f71427d1e84f3dd0314c0f7b2291e5b200ac8c7c3b92560405160405180910390a45050565b6000610fd682610e9e565b611015576040517f08c379a000000000000000000000000000000000000000000000000000000000815260040161100c90612c34565b60405180910390fd5b600061102083610938565b90508073ffffffffffffffffffffffffffffffffffffffff168473ffffffffffffffffffffffffffffffffffffffff16148061106257506110618185610c70565b5b806110a057508373ffffffffffffffffffffffffffffffffffffffff166110888461061f565b73ffffffffffffffffffffffffffffffffffffffff16145b91505092915050565b8273ffffffffffffffffffffffffffffffffffffffff166110c982610938565b73ffffffffffffffffffffffffffffffffffffffff161461111f576040517f08c379a000000000000000000000000000000000000000000000000000000000815260040161111690612cc6565b60405180910390fd5b600073ffffffffffffffffffffffffffffffffffffffff168273ffffffffffffffffffffffffffffffffffffffff16141561118f576040517f08c379a000000000000000000000000000000000000000000000000000000000815260040161118690612d58565b60405180910390fd5b61119a83838361196f565b6111a5600082610f12565b6001600360008573ffffffffffffffffffffffffffffffffffffffff1673ffffffffffffffffffffffffffffffffffffffff16815260200190815260200160002060008282546111f59190612da7565b925050819055506001600360008473ffffffffffffffffffffffffffffffffffffffff1673ffffffffffffffffffffffffffffffffffffffff168152602001908152602001600020600082825461124c9190612ddb565b92505081905550816002600083815260200190815260200160002060006101000a81548173ffffffffffffffffffffffffffffffffffffffff021916908373ffffffffffffffffffffffffffffffffffffffff160217905550808273ffffffffffffffffffffffffffffffffffffffff168473ffffffffffffffffffffffffffffffffffffffff167fddf252ad1be2c89b69c2b068fc378daa952ba7f163c4a11628f55a4df523b3ef60405160405180910390a461130b838383611974565b505050565b61131981611979565b50565b6000600760009054906101000a900473ffffffffffffffffffffffffffffffffffffffff16905081600760006101000a81548173ffffffffffffffffffffffffffffffffffffffff021916908373ffffffffffffffffffffffffffffffffffffffff1602179055508173ffffffffffffffffffffffffffffffffffffffff168173ffffffffffffffffffffffffffffffffffffffff167f8be0079c531659141344cd1fd0a4f28419497f9722a3daafe3b4186f6b6457e060405160405180910390a35050565b8173ffffffffffffffffffffffffffffffffffffffff168373ffffffffffffffffffffffffffffffffffffffff161415611451576040517f08c379a000000000000000000000000000000000000000000000000000000000815260040161144890612e7d565b60405180910390fd5b80600560008573ffffffffffffffffffffffffffffffffffffffff1673ffffffffffffffffffffffffffffffffffffffff16815260200190815260200160002060008473ffffffffffffffffffffffffffffffffffffffff1673ffffffffffffffffffffffffffffffffffffffff16815260200190815260200160002060006101000a81548160ff0219169083151502179055508173ffffffffffffffffffffffffffffffffffffffff168373ffffffffffffffffffffffffffffffffffffffff167f17307eab39ab6107e8899845ad3d59bd9653f200f220920489ca2b5937696c31836040516115429190612059565b60405180910390a3505050565b61155a8484846110a9565b611566848484846119cc565b6115a5576040517f08c379a000000000000000000000000000000000000000000000000000000000815260040161159c90612f0f565b60405180910390fd5b50505050565b60606115b682610e9e565b6115f5576040517f08c379a00000000000000000000000000000000000000000000000000000000081526004016115ec90612fa1565b60405180910390fd5b600060066000848152602001908152602001600020805461161590612694565b80601f016020809104026020016040519081016040528092919081815260200182805461164190612694565b801561168e5780601f106116635761010080835404028352916020019161168e565b820191906000526020600020905b81548152906001019060200180831161167157829003601f168201915b50505050509050600061169f611b63565b90506000815114156116b55781925050506116f8565b6000825111156116ea5780826040516020016116d2929190612ffd565b604051602081830303815290604052925050506116f8565b6116f384611b7a565b925050505b919050565b6001816000016000828254019250508190555050565b600081600001549050919050565b600073ffffffffffffffffffffffffffffffffffffffff168273ffffffffffffffffffffffffffffffffffffffff161415611791576040517f08c379a00000000000000000000000000000000000000000000000000000000081526004016117889061306d565b60405180910390fd5b61179a81610e9e565b156117da576040517f08c379a00000000000000000000000000000000000000000000000000000000081526004016117d1906130d9565b60405180910390fd5b6117e66000838361196f565b6001600360008473ffffffffffffffffffffffffffffffffffffffff1673ffffffffffffffffffffffffffffffffffffffff16815260200190815260200160002060008282546118369190612ddb565b92505081905550816002600083815260200190815260200160002060006101000a81548173ffffffffffffffffffffffffffffffffffffffff021916908373ffffffffffffffffffffffffffffffffffffffff160217905550808273ffffffffffffffffffffffffffffffffffffffff16600073ffffffffffffffffffffffffffffffffffffffff167fddf252ad1be2c89b69c2b068fc378daa952ba7f163c4a11628f55a4df523b3ef60405160405180910390a46118f760008383611974565b5050565b61190482610e9e565b611943576040517f08c379a000000000000000000000000000000000000000000000000000000000815260040161193a9061316b565b60405180910390fd5b8060066000848152602001908152602001600020908051906020019061196a929190611ec2565b505050565b505050565b505050565b61198281611c21565b60006006600083815260200190815260200160002080546119a290612694565b9050146119c9576006600082815260200190815260200160002060006119c89190611f48565b5b50565b60006119ed8473ffffffffffffffffffffffffffffffffffffffff16611d3e565b15611b56578373ffffffffffffffffffffffffffffffffffffffff1663150b7a02611a16610f0a565b8786866040518563ffffffff1660e01b8152600401611a3894939291906131e0565b602060405180830381600087803b158015611a5257600080fd5b505af1925050508015611a8357506040513d601f19601f82011682018060405250810190611a809190613241565b60015b611b06573d8060008114611ab3576040519150601f19603f3d011682016040523d82523d6000602084013e611ab8565b606091505b50600081511415611afe576040517f08c379a0000000000000000000000000000000000000000000000000000000008152600401611af590612f0f565b60405180910390fd5b805181602001fd5b63150b7a0260e01b7bffffffffffffffffffffffffffffffffffffffffffffffffffffffff1916817bffffffffffffffffffffffffffffffffffffffffffffffffffffffff191614915050611b5b565b600190505b949350505050565b606060405180602001604052806000815250905090565b6060611b8582610e9e565b611bc4576040517f08c379a0000000000000000000000000000000000000000000000000000000008152600401611bbb906132e0565b60405180910390fd5b6000611bce611b63565b90506000815111611bee5760405180602001604052806000815250611c19565b80611bf884611d61565b604051602001611c09929190612ffd565b6040516020818303038152906040525b915050919050565b6000611c2c82610938565b9050611c3a8160008461196f565b611c45600083610f12565b6001600360008373ffffffffffffffffffffffffffffffffffffffff1673ffffffffffffffffffffffffffffffffffffffff1681526020019081526020016000206000828254611c959190612da7565b925050819055506002600083815260200190815260200160002060006101000a81549073ffffffffffffffffffffffffffffffffffffffff021916905581600073ffffffffffffffffffffffffffffffffffffffff168273ffffffffffffffffffffffffffffffffffffffff167fddf252ad1be2c89b69c2b068fc378daa952ba7f163c4a11628f55a4df523b3ef60405160405180910390a4611d3a81600084611974565b5050565b6000808273ffffffffffffffffffffffffffffffffffffffff163b119050919050565b60606000821415611da9576040518060400160405280600181526020017f30000000000000000000000000000000000000000000000000000000000000008152509050611ebd565b600082905060005b60008214611ddb578080611dc490613300565b915050600a82611dd49190613378565b9150611db1565b60008167ffffffffffffffff811115611df757611df661237a565b5b6040519080825280601f01601f191660200182016040528015611e295781602001600182028036833780820191505090505b5090505b60008514611eb657600182611e429190612da7565b9150600a85611e5191906133a9565b6030611e5d9190612ddb565b60f81b818381518110611e7357611e726133da565b5b60200101907effffffffffffffffffffffffffffffffffffffffffffffffffffffffffffff1916908160001a905350600a85611eaf9190613378565b9450611e2d565b8093505050505b919050565b828054611ece90612694565b90600052602060002090601f016020900481019282611ef05760008555611f37565b82601f10611f0957805160ff1916838001178555611f37565b82800160010185558215611f37579182015b82811115611f36578251825591602001919060010190611f1b565b5b509050611f449190611f88565b5090565b508054611f5490612694565b6000825580601f10611f665750611f85565b601f016020900490600052602060002090810190611f849190611f88565b5b50565b5b80821115611fa1576000816000905550600101611f89565b5090565b6000604051905090565b600080fd5b600080fd5b60007fffffffff0000000000000000000000000000000000000000000000000000000082169050919050565b611fee81611fb9565b8114611ff957600080fd5b50565b60008135905061200b81611fe5565b92915050565b60006020828403121561202757612026611faf565b5b600061203584828501611ffc565b91505092915050565b60008115159050919050565b6120538161203e565b82525050565b600060208201905061206e600083018461204a565b92915050565b600081519050919050565b600082825260208201905092915050565b60005b838110156120ae578082015181840152602081019050612093565b838111156120bd576000848401525b50505050565b6000601f19601f8301169050919050565b60006120df82612074565b6120e9818561207f565b93506120f9818560208601612090565b612102816120c3565b840191505092915050565b6000602082019050818103600083015261212781846120d4565b905092915050565b6000819050919050565b6121428161212f565b811461214d57600080fd5b50565b60008135905061215f81612139565b92915050565b60006020828403121561217b5761217a611faf565b5b600061218984828501612150565b91505092915050565b600073ffffffffffffffffffffffffffffffffffffffff82169050919050565b60006121bd82612192565b9050919050565b6121cd816121b2565b82525050565b60006020820190506121e860008301846121c4565b92915050565b6121f7816121b2565b811461220257600080fd5b50565b600081359050612214816121ee565b92915050565b6000806040838503121561223157612230611faf565b5b600061223f85828601612205565b925050602061225085828601612150565b9150509250929050565b60008060006060848603121561227357612272611faf565b5b600061228186828701612205565b935050602061229286828701612205565b92505060406122a386828701612150565b9150509250925092565b6000602082840312156122c3576122c2611faf565b5b60006122d184828501612205565b91505092915050565b6122e38161212f565b82525050565b60006020820190506122fe60008301846122da565b92915050565b61230d8161203e565b811461231857600080fd5b50565b60008135905061232a81612304565b92915050565b6000806040838503121561234757612346611faf565b5b600061235585828601612205565b92505060206123668582860161231b565b9150509250929050565b600080fd5b600080fd5b7f4e487b7100000000000000000000000000000000000000000000000000000000600052604160045260246000fd5b6123b2826120c3565b810181811067ffffffffffffffff821117156123d1576123d061237a565b5b80604052505050565b60006123e4611fa5565b90506123f082826123a9565b919050565b600067ffffffffffffffff8211156124105761240f61237a565b5b612419826120c3565b9050602081019050919050565b82818337600083830152505050565b6000612448612443846123f5565b6123da565b90508281526020810184848401111561246457612463612375565b5b61246f848285612426565b509392505050565b600082601f83011261248c5761248b612370565b5b813561249c848260208601612435565b91505092915050565b600080600080608085870312156124bf576124be611faf565b5b60006124cd87828801612205565b94505060206124de87828801612205565b93505060406124ef87828801612150565b925050606085013567ffffffffffffffff8111156125105761250f611fb4565b5b61251c87828801612477565b91505092959194509250565b6000806040838503121561253f5761253e611faf565b5b600061254d85828601612205565b925050602061255e85828601612205565b9150509250929050565b600067ffffffffffffffff8211156125835761258261237a565b5b61258c826120c3565b9050602081019050919050565b60006125ac6125a784612568565b6123da565b9050828152602081018484840111156125c8576125c7612375565b5b6125d3848285612426565b509392505050565b600082601f8301126125f0576125ef612370565b5b8135612600848260208601612599565b91505092915050565b600080604083850312156126205761261f611faf565b5b600061262e85828601612205565b925050602083013567ffffffffffffffff81111561264f5761264e611fb4565b5b61265b858286016125db565b9150509250929050565b7f4e487b7100000000000000000000000000000000000000000000000000000000600052602260045260246000fd5b600060028204905060018216806126ac57607f821691505b602082108114156126c0576126bf612665565b5b50919050565b7f4552433732313a20617070726f76656420717565727920666f72206e6f6e657860008201527f697374656e7420746f6b656e0000000000000000000000000000000000000000602082015250565b6000612722602c8361207f565b915061272d826126c6565b604082019050919050565b6000602082019050818103600083015261275181612715565b9050919050565b7f4552433732313a20617070726f76616c20746f2063757272656e74206f776e6560008201527f7200000000000000000000000000000000000000000000000000000000000000602082015250565b60006127b460218361207f565b91506127bf82612758565b604082019050919050565b600060208201905081810360008301526127e3816127a7565b9050919050565b7f4552433732313a20617070726f76652063616c6c6572206973206e6f74206f7760008201527f6e6572206e6f7220617070726f76656420666f7220616c6c0000000000000000602082015250565b600061284660388361207f565b9150612851826127ea565b604082019050919050565b6000602082019050818103600083015261287581612839565b9050919050565b7f4552433732313a207472616e736665722063616c6c6572206973206e6f74206f60008201527f776e6572206e6f7220617070726f766564000000000000000000000000000000602082015250565b60006128d860318361207f565b91506128e38261287c565b604082019050919050565b60006020820190508181036000830152612907816128cb565b9050919050565b7f4552433732314275726e61626c653a2063616c6c6572206973206e6f74206f7760008201527f6e6572206e6f7220617070726f76656400000000000000000000000000000000602082015250565b600061296a60308361207f565b91506129758261290e565b604082019050919050565b600060208201905081810360008301526129998161295d565b9050919050565b7f4552433732313a206f776e657220717565727920666f72206e6f6e657869737460008201527f656e7420746f6b656e0000000000000000000000000000000000000000000000602082015250565b60006129fc60298361207f565b9150612a07826129a0565b604082019050919050565b60006020820190508181036000830152612a2b816129ef565b9050919050565b7f4552433732313a2062616c616e636520717565727920666f7220746865207a6560008201527f726f206164647265737300000000000000000000000000000000000000000000602082015250565b6000612a8e602a8361207f565b9150612a9982612a32565b604082019050919050565b60006020820190508181036000830152612abd81612a81565b9050919050565b7f4f776e61626c653a2063616c6c6572206973206e6f7420746865206f776e6572600082015250565b6000612afa60208361207f565b9150612b0582612ac4565b602082019050919050565b60006020820190508181036000830152612b2981612aed565b9050919050565b7f4f776e61626c653a206e6577206f776e657220697320746865207a65726f206160008201527f6464726573730000000000000000000000000000000000000000000000000000602082015250565b6000612b8c60268361207f565b9150612b9782612b30565b604082019050919050565b60006020820190508181036000830152612bbb81612b7f565b9050919050565b7f4552433732313a206f70657261746f7220717565727920666f72206e6f6e657860008201527f697374656e7420746f6b656e0000000000000000000000000000000000000000602082015250565b6000612c1e602c8361207f565b9150612c2982612bc2565b604082019050919050565b60006020820190508181036000830152612c4d81612c11565b9050919050565b7f4552433732313a207472616e736665722066726f6d20696e636f72726563742060008201527f6f776e6572000000000000000000000000000000000000000000000000000000602082015250565b6000612cb060258361207f565b9150612cbb82612c54565b604082019050919050565b60006020820190508181036000830152612cdf81612ca3565b9050919050565b7f4552433732313a207472616e7366657220746f20746865207a65726f2061646460008201527f7265737300000000000000000000000000000000000000000000000000000000602082015250565b6000612d4260248361207f565b9150612d4d82612ce6565b604082019050919050565b60006020820190508181036000830152612d7181612d35565b9050919050565b7f4e487b7100000000000000000000000000000000000000000000000000000000600052601160045260246000fd5b6000612db28261212f565b9150612dbd8361212f565b925082821015612dd057612dcf612d78565b5b828203905092915050565b6000612de68261212f565b9150612df18361212f565b9250827fffffffffffffffffffffffffffffffffffffffffffffffffffffffffffffffff03821115612e2657612e25612d78565b5b828201905092915050565b7f4552433732313a20617070726f766520746f2063616c6c657200000000000000600082015250565b6000612e6760198361207f565b9150612e7282612e31565b602082019050919050565b60006020820190508181036000830152612e9681612e5a565b9050919050565b7f4552433732313a207472616e7366657220746f206e6f6e20455243373231526560008201527f63656976657220696d706c656d656e7465720000000000000000000000000000602082015250565b6000612ef960328361207f565b9150612f0482612e9d565b604082019050919050565b60006020820190508181036000830152612f2881612eec565b9050919050565b7f45524337323155524953746f726167653a2055524920717565727920666f722060008201527f6e6f6e6578697374656e7420746f6b656e000000000000000000000000000000602082015250565b6000612f8b60318361207f565b9150612f9682612f2f565b604082019050919050565b60006020820190508181036000830152612fba81612f7e565b9050919050565b600081905092915050565b6000612fd782612074565b612fe18185612fc1565b9350612ff1818560208601612090565b80840191505092915050565b60006130098285612fcc565b91506130158284612fcc565b91508190509392505050565b7f4552433732313a206d696e7420746f20746865207a65726f2061646472657373600082015250565b600061305760208361207f565b915061306282613021565b602082019050919050565b600060208201905081810360008301526130868161304a565b9050919050565b7f4552433732313a20746f6b656e20616c7265616479206d696e74656400000000600082015250565b60006130c3601c8361207f565b91506130ce8261308d565b602082019050919050565b600060208201905081810360008301526130f2816130b6565b9050919050565b7f45524337323155524953746f726167653a2055524920736574206f66206e6f6e60008201527f6578697374656e7420746f6b656e000000000000000000000000000000000000602082015250565b6000613155602e8361207f565b9150613160826130f9565b604082019050919050565b6000602082019050818103600083015261318481613148565b9050919050565b600081519050919050565b600082825260208201905092915050565b60006131b28261318b565b6131bc8185613196565b93506131cc818560208601612090565b6131d5816120c3565b840191505092915050565b60006080820190506131f560008301876121c4565b61320260208301866121c4565b61320f60408301856122da565b818103606083015261322181846131a7565b905095945050505050565b60008151905061323b81611fe5565b92915050565b60006020828403121561325757613256611faf565b5b60006132658482850161322c565b91505092915050565b7f4552433732314d657461646174613a2055524920717565727920666f72206e6f60008201527f6e6578697374656e7420746f6b656e0000000000000000000000000000000000602082015250565b60006132ca602f8361207f565b91506132d58261326e565b604082019050919050565b600060208201905081810360008301526132f9816132bd565b9050919050565b600061330b8261212f565b91507fffffffffffffffffffffffffffffffffffffffffffffffffffffffffffffffff82141561333e5761333d612d78565b5b600182019050919050565b7f4e487b7100000000000000000000000000000000000000000000000000000000600052601260045260246000fd5b60006133838261212f565b915061338e8361212f565b92508261339e5761339d613349565b5b828204905092915050565b60006133b48261212f565b91506133bf8361212f565b9250826133cf576133ce613349565b5b828206905092915050565b7f4e487b7100000000000000000000000000000000000000000000000000000000600052603260045260246000fdfea2646970667358221220f643a0fe1a39096c628fbd097c1fa5d2af1575e0b8be0b027f5aac2c46e038a764736f6c63430008090033",
  "linkReferences": {},
  "deployedLinkReferences": {}
}