{
	"_format": "hh-sol-artifact-1",
	"contractName": "CarSharingNFT",
	"sourceName": "contracts/CarSharingNFT.sol",
	"abi": [
		{
			"inputs": [
				{
					"internalType": "string",
					"name": "",
					"type": "string"
				}
			],
			"stateMutability": "payable",
			"type": "constructor"
		},
		{
			"inputs": [],
			"name": "AlreadyRegistered",
			"type": "error"
		},
		{
			"inputs": [
				{
					"internalType": "string",
					"name": "rangeTime",
					"type": "string"
				}
			],
			"name": "InvalidTime",
			"type": "error"
		},
		{
			"inputs": [],
			"name": "Unauthorized",
			"type": "error"
		},
		{
			"anonymous": false,
			"inputs": [
				{
					"indexed": true,
					"internalType": "address",
					"name": "owner",
					"type": "address"
				},
				{
					"indexed": true,
					"internalType": "address",
					"name": "approved",
					"type": "address"
				},
				{
					"indexed": true,
					"internalType": "uint256",
					"name": "tokenId",
					"type": "uint256"
				}
			],
			"name": "Approval",
			"type": "event"
		},
		{
			"anonymous": false,
			"inputs": [
				{
					"indexed": true,
					"internalType": "address",
					"name": "owner",
					"type": "address"
				},
				{
					"indexed": true,
					"internalType": "address",
					"name": "operator",
					"type": "address"
				},
				{
					"indexed": false,
					"internalType": "bool",
					"name": "approved",
					"type": "bool"
				}
			],
			"name": "ApprovalForAll",
			"type": "event"
		},
		{
			"anonymous": false,
			"inputs": [
				{
					"indexed": true,
					"internalType": "address",
					"name": "from",
					"type": "address"
				},
				{
					"indexed": true,
					"internalType": "address",
					"name": "to",
					"type": "address"
				},
				{
					"indexed": true,
					"internalType": "uint256",
					"name": "tokenId",
					"type": "uint256"
				}
			],
			"name": "Transfer",
			"type": "event"
		},
		{
			"inputs": [
				{
					"internalType": "address",
					"name": "to",
					"type": "address"
				},
				{
					"internalType": "uint256",
					"name": "tokenId",
					"type": "uint256"
				}
			],
			"name": "approve",
			"outputs": [],
			"stateMutability": "nonpayable",
			"type": "function"
		},
		{
			"inputs": [
				{
					"internalType": "address",
					"name": "owner",
					"type": "address"
				}
			],
			"name": "balanceOf",
			"outputs": [
				{
					"internalType": "uint256",
					"name": "",
					"type": "uint256"
				}
			],
			"stateMutability": "view",
			"type": "function"
		},
		{
			"inputs": [
				{
					"internalType": "string",
					"name": "rangeTime",
					"type": "string"
				}
			],
			"name": "getAddress",
			"outputs": [
				{
					"internalType": "address",
					"name": "",
					"type": "address"
				}
			],
			"stateMutability": "view",
			"type": "function"
		},
		{
			"inputs": [],
			"name": "getAllTimes",
			"outputs": [
				{
					"internalType": "string[]",
					"name": "",
					"type": "string[]"
				}
			],
			"stateMutability": "view",
			"type": "function"
		},
		{
			"inputs": [
				{
					"internalType": "uint256",
					"name": "tokenId",
					"type": "uint256"
				}
			],
			"name": "getApproved",
			"outputs": [
				{
					"internalType": "address",
					"name": "",
					"type": "address"
				}
			],
			"stateMutability": "view",
			"type": "function"
		},
		{
			"inputs": [
				{
					"internalType": "string",
					"name": "rangeTime",
					"type": "string"
				}
			],
			"name": "getRecord",
			"outputs": [
				{
					"internalType": "string",
					"name": "",
					"type": "string"
				}
			],
			"stateMutability": "view",
			"type": "function"
		},
		{
			"inputs": [
				{
					"internalType": "address",
					"name": "owner",
					"type": "address"
				},
				{
					"internalType": "address",
					"name": "operator",
					"type": "address"
				}
			],
			"name": "isApprovedForAll",
			"outputs": [
				{
					"internalType": "bool",
					"name": "",
					"type": "bool"
				}
			],
			"stateMutability": "view",
			"type": "function"
		},
		{
			"inputs": [],
			"name": "isOwner",
			"outputs": [
				{
					"internalType": "bool",
					"name": "",
					"type": "bool"
				}
			],
			"stateMutability": "view",
			"type": "function"
		},
		{
			"inputs": [],
			"name": "name",
			"outputs": [
				{
					"internalType": "string",
					"name": "",
					"type": "string"
				}
			],
			"stateMutability": "view",
			"type": "function"
		},
		{
			"inputs": [],
			"name": "owner",
			"outputs": [
				{
					"internalType": "address payable",
					"name": "",
					"type": "address"
				}
			],
			"stateMutability": "view",
			"type": "function"
		},
		{
			"inputs": [
				{
					"internalType": "uint256",
					"name": "tokenId",
					"type": "uint256"
				}
			],
			"name": "ownerOf",
			"outputs": [
				{
					"internalType": "address",
					"name": "",
					"type": "address"
				}
			],
			"stateMutability": "view",
			"type": "function"
		},
		{
			"inputs": [
				{
					"internalType": "string",
					"name": "rangeTime",
					"type": "string"
				}
			],
			"name": "price",
			"outputs": [
				{
					"internalType": "uint256",
					"name": "",
					"type": "uint256"
				}
			],
			"stateMutability": "pure",
			"type": "function"
		},
		{
			"inputs": [
				{
					"internalType": "uint256",
					"name": "",
					"type": "uint256"
				}
			],
			"name": "rangeTimes",
			"outputs": [
				{
					"internalType": "string",
					"name": "",
					"type": "string"
				}
			],
			"stateMutability": "view",
			"type": "function"
		},
		{
			"inputs": [
				{
					"internalType": "string",
					"name": "",
					"type": "string"
				}
			],
			"name": "records",
			"outputs": [
				{
					"internalType": "string",
					"name": "",
					"type": "string"
				}
			],
			"stateMutability": "view",
			"type": "function"
		},
		{
			"inputs": [
				{
					"internalType": "string",
					"name": "rangeTime",
					"type": "string"
				}
			],
			"name": "register",
			"outputs": [],
			"stateMutability": "payable",
			"type": "function"
		},
		{
			"inputs": [
				{
					"internalType": "string",
					"name": "",
					"type": "string"
				}
			],
			"name": "rents",
			"outputs": [
				{
					"internalType": "address",
					"name": "",
					"type": "address"
				}
			],
			"stateMutability": "view",
			"type": "function"
		},
		{
			"inputs": [
				{
					"internalType": "address",
					"name": "from",
					"type": "address"
				},
				{
					"internalType": "address",
					"name": "to",
					"type": "address"
				},
				{
					"internalType": "uint256",
					"name": "tokenId",
					"type": "uint256"
				}
			],
			"name": "safeTransferFrom",
			"outputs": [],
			"stateMutability": "nonpayable",
			"type": "function"
		},
		{
			"inputs": [
				{
					"internalType": "address",
					"name": "from",
					"type": "address"
				},
				{
					"internalType": "address",
					"name": "to",
					"type": "address"
				},
				{
					"internalType": "uint256",
					"name": "tokenId",
					"type": "uint256"
				},
				{
					"internalType": "bytes",
					"name": "_data",
					"type": "bytes"
				}
			],
			"name": "safeTransferFrom",
			"outputs": [],
			"stateMutability": "nonpayable",
			"type": "function"
		},
		{
			"inputs": [
				{
					"internalType": "address",
					"name": "operator",
					"type": "address"
				},
				{
					"internalType": "bool",
					"name": "approved",
					"type": "bool"
				}
			],
			"name": "setApprovalForAll",
			"outputs": [],
			"stateMutability": "nonpayable",
			"type": "function"
		},
		{
			"inputs": [
				{
					"internalType": "string",
					"name": "rangeTime",
					"type": "string"
				},
				{
					"internalType": "string",
					"name": "record",
					"type": "string"
				}
			],
			"name": "setRecord",
			"outputs": [],
			"stateMutability": "nonpayable",
			"type": "function"
		},
		{
			"inputs": [
				{
					"internalType": "bytes4",
					"name": "interfaceId",
					"type": "bytes4"
				}
			],
			"name": "supportsInterface",
			"outputs": [
				{
					"internalType": "bool",
					"name": "",
					"type": "bool"
				}
			],
			"stateMutability": "view",
			"type": "function"
		},
		{
			"inputs": [],
			"name": "symbol",
			"outputs": [
				{
					"internalType": "string",
					"name": "",
					"type": "string"
				}
			],
			"stateMutability": "view",
			"type": "function"
		},
		{
			"inputs": [
				{
					"internalType": "uint256",
					"name": "tokenId",
					"type": "uint256"
				}
			],
			"name": "tokenURI",
			"outputs": [
				{
					"internalType": "string",
					"name": "",
					"type": "string"
				}
			],
			"stateMutability": "view",
			"type": "function"
		},
		{
			"inputs": [
				{
					"internalType": "address",
					"name": "from",
					"type": "address"
				},
				{
					"internalType": "address",
					"name": "to",
					"type": "address"
				},
				{
					"internalType": "uint256",
					"name": "tokenId",
					"type": "uint256"
				}
			],
			"name": "transferFrom",
			"outputs": [],
			"stateMutability": "nonpayable",
			"type": "function"
		},
		{
			"inputs": [
				{
					"internalType": "string",
					"name": "rangeTime",
					"type": "string"
				}
			],
			"name": "valid",
			"outputs": [
				{
					"internalType": "bool",
					"name": "",
					"type": "bool"
				}
			],
			"stateMutability": "pure",
			"type": "function"
		},
		{
			"inputs": [],
			"name": "withdraw",
			"outputs": [],
			"stateMutability": "nonpayable",
			"type": "function"
		}
	],
	"bytecode": "0x608060405260405180610b400160405280610b1a8152602001620052a2610b1a9139600a908051906020019062000038929190620001e9565b506040518060400160405280600d81526020017f3c2f746578743e3c2f7376673e00000000000000000000000000000000000000815250600b908051906020019062000086929190620001e9565b5060405162005dbc38038062005dbc8339818101604052810190620000ac919062000436565b6040518060400160405280601381526020017f4361722053686172696e672053657276696365000000000000000000000000008152506040518060400160405280600381526020017f4353530000000000000000000000000000000000000000000000000000000000815250816000908051906020019062000130929190620001e9565b50806001908051906020019062000149929190620001e9565b50505073d0d5e3db44de05e9f294bb0a3beeaf030de24ada600960006101000a81548173ffffffffffffffffffffffffffffffffffffffff021916908373ffffffffffffffffffffffffffffffffffffffff16021790555033600760006101000a81548173ffffffffffffffffffffffffffffffffffffffff021916908373ffffffffffffffffffffffffffffffffffffffff16021790555050620004ec565b828054620001f790620004b6565b90600052602060002090601f0160209004810192826200021b576000855562000267565b82601f106200023657805160ff191683800117855562000267565b8280016001018555821562000267579182015b828111156200026657825182559160200191906001019062000249565b5b5090506200027691906200027a565b5090565b5b80821115620002955760008160009055506001016200027b565b5090565b6000604051905090565b600080fd5b600080fd5b600080fd5b600080fd5b6000601f19601f8301169050919050565b7f4e487b7100000000000000000000000000000000000000000000000000000000600052604160045260246000fd5b6200030282620002b7565b810181811067ffffffffffffffff82111715620003245762000323620002c8565b5b80604052505050565b60006200033962000299565b9050620003478282620002f7565b919050565b600067ffffffffffffffff8211156200036a5762000369620002c8565b5b6200037582620002b7565b9050602081019050919050565b60005b83811015620003a257808201518184015260208101905062000385565b83811115620003b2576000848401525b50505050565b6000620003cf620003c9846200034c565b6200032d565b905082815260208101848484011115620003ee57620003ed620002b2565b5b620003fb84828562000382565b509392505050565b600082601f8301126200041b576200041a620002ad565b5b81516200042d848260208601620003b8565b91505092915050565b6000602082840312156200044f576200044e620002a3565b5b600082015167ffffffffffffffff81111562000470576200046f620002a8565b5b6200047e8482850162000403565b91505092915050565b7f4e487b7100000000000000000000000000000000000000000000000000000000600052602260045260246000fd5b60006002820490506001821680620004cf57607f821691505b60208210811415620004e657620004e562000487565b5b50919050565b614da680620004fc6000396000f3fe6080604052600436106101815760003560e01c80638da5cb5b116100d1578063bf40fac11161008a578063e985e9c511610064578063e985e9c5146105cc578063f2c298be14610609578063f373c3cc14610625578063fe2c61981461066257610181565b8063bf40fac114610529578063c1880a9814610566578063c87b56dd1461058f57610181565b80638da5cb5b146104195780638f32d59b1461044457806395d89b411461046f5780639791c0971461049a578063a22cb465146104d7578063b88d4fde1461050057610181565b806323b872dd1161013e578063541e771d11610118578063541e771d146103375780636139faa6146103745780636352211e1461039f57806370a08231146103dc57610181565b806323b872dd146102ce5780633ccfd60b146102f757806342842e0e1461030e57610181565b806301ffc9a71461018657806306fdde03146101c3578063081812fc146101ee578063095ea7b31461022b57806311dd8845146102545780631992809514610291575b600080fd5b34801561019257600080fd5b506101ad60048036038101906101a89190613131565b61069f565b6040516101ba9190613179565b60405180910390f35b3480156101cf57600080fd5b506101d8610781565b6040516101e5919061322d565b60405180910390f35b3480156101fa57600080fd5b5061021560048036038101906102109190613285565b610813565b60405161022291906132f3565b60405180910390f35b34801561023757600080fd5b50610252600480360381019061024d919061333a565b610898565b005b34801561026057600080fd5b5061027b600480360381019061027691906133df565b6109b0565b604051610288919061322d565b60405180910390f35b34801561029d57600080fd5b506102b860048036038101906102b3919061355c565b610a63565b6040516102c591906132f3565b60405180910390f35b3480156102da57600080fd5b506102f560048036038101906102f091906135a5565b610aac565b005b34801561030357600080fd5b5061030c610b0c565b005b34801561031a57600080fd5b50610335600480360381019061033091906135a5565b610bd2565b005b34801561034357600080fd5b5061035e6004803603810190610359919061355c565b610bf2565b60405161036b919061322d565b60405180910390f35b34801561038057600080fd5b50610389610ca8565b6040516103969190613704565b60405180910390f35b3480156103ab57600080fd5b506103c660048036038101906103c19190613285565b610e86565b6040516103d391906132f3565b60405180910390f35b3480156103e857600080fd5b5061040360048036038101906103fe9190613726565b610f38565b6040516104109190613762565b60405180910390f35b34801561042557600080fd5b5061042e610ff0565b60405161043b919061379e565b60405180910390f35b34801561045057600080fd5b50610459611016565b6040516104669190613179565b60405180910390f35b34801561047b57600080fd5b5061048461106e565b604051610491919061322d565b60405180910390f35b3480156104a657600080fd5b506104c160048036038101906104bc91906133df565b611100565b6040516104ce9190613179565b60405180910390f35b3480156104e357600080fd5b506104fe60048036038101906104f991906137e5565b6111b4565b005b34801561050c57600080fd5b50610527600480360381019061052291906138c6565b6111ca565b005b34801561053557600080fd5b50610550600480360381019061054b91906133df565b61122c565b60405161055d91906132f3565b60405180910390f35b34801561057257600080fd5b5061058d60048036038101906105889190613949565b611277565b005b34801561059b57600080fd5b506105b660048036038101906105b19190613285565b6113b9565b6040516105c3919061322d565b60405180910390f35b3480156105d857600080fd5b506105f360048036038101906105ee91906139ca565b61150b565b6040516106009190613179565b60405180910390f35b610623600480360381019061061e91906133df565b61159f565b005b34801561063157600080fd5b5061064c60048036038101906106479190613285565b6119ce565b604051610659919061322d565b60405180910390f35b34801561066e57600080fd5b50610689600480360381019061068491906133df565b611a6e565b6040516106969190613762565b60405180910390f35b60007f80ac58cd000000000000000000000000000000000000000000000000000000007bffffffffffffffffffffffffffffffffffffffffffffffffffffffff1916827bffffffffffffffffffffffffffffffffffffffffffffffffffffffff1916148061076a57507f5b5e139f000000000000000000000000000000000000000000000000000000007bffffffffffffffffffffffffffffffffffffffffffffffffffffffff1916827bffffffffffffffffffffffffffffffffffffffffffffffffffffffff1916145b8061077a575061077982611b14565b5b9050919050565b60606000805461079090613a39565b80601f01602080910402602001604051908101604052809291908181526020018280546107bc90613a39565b80156108095780601f106107de57610100808354040283529160200191610809565b820191906000526020600020905b8154815290600101906020018083116107ec57829003601f168201915b5050505050905090565b600061081e82611b7e565b61085d576040517f08c379a000000000000000000000000000000000000000000000000000000000815260040161085490613add565b60405180910390fd5b6004600083815260200190815260200160002060009054906101000a900473ffffffffffffffffffffffffffffffffffffffff169050919050565b60006108a382610e86565b90508073ffffffffffffffffffffffffffffffffffffffff168373ffffffffffffffffffffffffffffffffffffffff161415610914576040517f08c379a000000000000000000000000000000000000000000000000000000000815260040161090b90613b6f565b60405180910390fd5b8073ffffffffffffffffffffffffffffffffffffffff16610933611bea565b73ffffffffffffffffffffffffffffffffffffffff16148061096257506109618161095c611bea565b61150b565b5b6109a1576040517f08c379a000000000000000000000000000000000000000000000000000000000815260040161099890613c01565b60405180910390fd5b6109ab8383611bf2565b505050565b6060600d83836040516109c4929190613c51565b908152602001604051809103902080546109dd90613a39565b80601f0160208091040260200160405190810160405280929190818152602001828054610a0990613a39565b8015610a565780601f10610a2b57610100808354040283529160200191610a56565b820191906000526020600020905b815481529060010190602001808311610a3957829003601f168201915b5050505050905092915050565b600c818051602081018201805184825260208301602085012081835280955050505050506000915054906101000a900473ffffffffffffffffffffffffffffffffffffffff1681565b610abd610ab7611bea565b82611cab565b610afc576040517f08c379a0000000000000000000000000000000000000000000000000000000008152600401610af390613cdc565b60405180910390fd5b610b07838383611d89565b505050565b610b14611016565b610b1d57600080fd5b600047905060003373ffffffffffffffffffffffffffffffffffffffff1682604051610b4890613d2d565b60006040518083038185875af1925050503d8060008114610b85576040519150601f19603f3d011682016040523d82523d6000602084013e610b8a565b606091505b5050905080610bce576040517f08c379a0000000000000000000000000000000000000000000000000000000008152600401610bc590613d8e565b60405180910390fd5b5050565b610bed838383604051806020016040528060008152506111ca565b505050565b600d818051602081018201805184825260208301602085012081835280955050505050506000915090508054610c2790613a39565b80601f0160208091040260200160405190810160405280929190818152602001828054610c5390613a39565b8015610ca05780601f10610c7557610100808354040283529160200191610ca0565b820191906000526020600020905b815481529060010190602001808311610c8357829003601f168201915b505050505081565b6060610ce86040518060400160405280601f81526020017f47657474696e6720616c6c2074696d65732066726f6d20636f6e747261637400815250611ff0565b6000610cf46008612089565b67ffffffffffffffff811115610d0d57610d0c613431565b5b604051908082528060200260200182016040528015610d4057816020015b6060815260200190600190039081610d2b5790505b50905060005b610d506008612089565b811015610e7e57600e60008281526020019081526020016000208054610d7590613a39565b80601f0160208091040260200160405190810160405280929190818152602001828054610da190613a39565b8015610dee5780601f10610dc357610100808354040283529160200191610dee565b820191906000526020600020905b815481529060010190602001808311610dd157829003601f168201915b5050505050828281518110610e0657610e05613dae565b5b6020026020010181905250610e6b6040518060400160405280601781526020017f4e616d6520666f7220746f6b656e20256420697320257300000000000000000081525082848481518110610e5e57610e5d613dae565b5b6020026020010151612097565b8080610e7690613e0c565b915050610d46565b508091505090565b6000806002600084815260200190815260200160002060009054906101000a900473ffffffffffffffffffffffffffffffffffffffff169050600073ffffffffffffffffffffffffffffffffffffffff168173ffffffffffffffffffffffffffffffffffffffff161415610f2f576040517f08c379a0000000000000000000000000000000000000000000000000000000008152600401610f2690613ec7565b60405180910390fd5b80915050919050565b60008073ffffffffffffffffffffffffffffffffffffffff168273ffffffffffffffffffffffffffffffffffffffff161415610fa9576040517f08c379a0000000000000000000000000000000000000000000000000000000008152600401610fa090613f59565b60405180910390fd5b600360008373ffffffffffffffffffffffffffffffffffffffff1673ffffffffffffffffffffffffffffffffffffffff168152602001908152602001600020549050919050565b600760009054906101000a900473ffffffffffffffffffffffffffffffffffffffff1681565b6000600760009054906101000a900473ffffffffffffffffffffffffffffffffffffffff1673ffffffffffffffffffffffffffffffffffffffff163373ffffffffffffffffffffffffffffffffffffffff1614905090565b60606001805461107d90613a39565b80601f01602080910402602001604051908101604052809291908181526020018280546110a990613a39565b80156110f65780601f106110cb576101008083540402835291602001916110f6565b820191906000526020600020905b8154815290600101906020018083116110d957829003601f168201915b5050505050905090565b6000600361115184848080601f016020809104026020016040519081016040528093929190818152602001838380828437600081840152601f19601f82011690508083019250505050505050612136565b101580156111ac575060146111a984848080601f016020809104026020016040519081016040528093929190818152602001838380828437600081840152601f19601f82011690508083019250505050505050612136565b11155b905092915050565b6111c66111bf611bea565b83836122eb565b5050565b6111db6111d5611bea565b83611cab565b61121a576040517f08c379a000000000000000000000000000000000000000000000000000000000815260040161121190613cdc565b60405180910390fd5b61122684848484612458565b50505050565b6000600c8383604051611240929190613c51565b908152602001604051809103902060009054906101000a900473ffffffffffffffffffffffffffffffffffffffff16905092915050565b600c8484604051611289929190613c51565b908152602001604051809103902060009054906101000a900473ffffffffffffffffffffffffffffffffffffffff1673ffffffffffffffffffffffffffffffffffffffff163373ffffffffffffffffffffffffffffffffffffffff161461131c576040517f82b4290000000000000000000000000000000000000000000000000000000000815260040160405180910390fd5b611383604051806060016040528060268152602001614d0b602691393386868080601f016020809104026020016040519081016040528093929190818152602001838380828437600081840152601f19601f820116905080830192505050505050506124b4565b8181600d8686604051611397929190613c51565b908152602001604051809103902091906113b2929190612f9c565b5050505050565b60606113c482611b7e565b611403576040517f08c379a00000000000000000000000000000000000000000000000000000000081526004016113fa90613feb565b60405180910390fd5b600060066000848152602001908152602001600020805461142390613a39565b80601f016020809104026020016040519081016040528092919081815260200182805461144f90613a39565b801561149c5780601f106114715761010080835404028352916020019161149c565b820191906000526020600020905b81548152906001019060200180831161147f57829003601f168201915b5050505050905060006114ad612553565b90506000815114156114c3578192505050611506565b6000825111156114f85780826040516020016114e092919061403c565b60405160208183030381529060405292505050611506565b6115018461256a565b925050505b919050565b6000600560008473ffffffffffffffffffffffffffffffffffffffff1673ffffffffffffffffffffffffffffffffffffffff16815260200190815260200160002060008373ffffffffffffffffffffffffffffffffffffffff1673ffffffffffffffffffffffffffffffffffffffff16815260200190815260200160002060009054906101000a900460ff16905092915050565b600073ffffffffffffffffffffffffffffffffffffffff16600c83836040516115c9929190613c51565b908152602001604051809103902060009054906101000a900473ffffffffffffffffffffffffffffffffffffffff1673ffffffffffffffffffffffffffffffffffffffff1614611645576040517f3a81d6fc00000000000000000000000000000000000000000000000000000000815260040160405180910390fd5b61164f8282611100565b6116925781816040517f938baea700000000000000000000000000000000000000000000000000000000815260040161168992919061408d565b60405180910390fd5b600061169e8383611a6e565b9050803410156116e3576040517f08c379a00000000000000000000000000000000000000000000000000000000081526004016116da906140fd565b60405180910390fd5b600083836040516020016116f8929190613c51565b60405160208183030381529060405290506000600a82600b604051602001611722939291906141b1565b6040516020818303038152906040529050600061173f6008612089565b9050600061179087878080601f016020809104026020016040519081016040528093929190818152602001838380828437600081840152601f19601f82011690508083019250505050505050612136565b9050600061179d82612611565b9050611806604051806060016040528060318152602001614ca16031913989898080601f016020809104026020016040519081016040528093929190818152602001838380828437600081840152601f19601f8201169050808301925050505050505085612772565b600061183c8661181587612811565b846040516020016118289392919061435e565b604051602081830303815290604052612811565b90506000816040516020016118519190614407565b6040516020818303038152906040529050611883604051806060016040528060398152602001614c6860399139611ff0565b6118c26040518060400160405280600e81526020017f46696e616c20746f6b656e555249000000000000000000000000000000000000815250826129a9565b6118e3604051806060016040528060398152602001614cd260399139611ff0565b6118ed3386612a45565b6118f78582612a63565b33600c8b8b60405161190a929190613c51565b908152602001604051809103902060006101000a81548173ffffffffffffffffffffffffffffffffffffffff021916908373ffffffffffffffffffffffffffffffffffffffff1602179055508989600e60008881526020019081526020016000209190611978929190612f9c565b506119836008612ad7565b6119c26040518060400160405280601881526020017f25732068617320726567697374657265642061204e465421000000000000000081525033612aed565b50505050505050505050565b600e60205280600052604060002060009150905080546119ed90613a39565b80601f0160208091040260200160405190810160405280929190818152602001828054611a1990613a39565b8015611a665780601f10611a3b57610100808354040283529160200191611a66565b820191906000526020600020905b815481529060010190602001808311611a4957829003601f168201915b505050505081565b600080611abe84848080601f016020809104026020016040519081016040528093929190818152602001838380828437600081840152601f19601f82011690508083019250505050505050612136565b905060028111611acd57600080fd5b6003811415611ae7576706f05b59d3b20000915050611b0e565b6004811415611b0157670429d069189e0000915050611b0e565b67016345785d8a00009150505b92915050565b60007f01ffc9a7000000000000000000000000000000000000000000000000000000007bffffffffffffffffffffffffffffffffffffffffffffffffffffffff1916827bffffffffffffffffffffffffffffffffffffffffffffffffffffffff1916149050919050565b60008073ffffffffffffffffffffffffffffffffffffffff166002600084815260200190815260200160002060009054906101000a900473ffffffffffffffffffffffffffffffffffffffff1673ffffffffffffffffffffffffffffffffffffffff1614159050919050565b600033905090565b816004600083815260200190815260200160002060006101000a81548173ffffffffffffffffffffffffffffffffffffffff021916908373ffffffffffffffffffffffffffffffffffffffff160217905550808273ffffffffffffffffffffffffffffffffffffffff16611c6583610e86565b73ffffffffffffffffffffffffffffffffffffffff167f8c5be1e5ebec7d5bd14f71427d1e84f3dd0314c0f7b2291e5b200ac8c7c3b92560405160405180910390a45050565b6000611cb682611b7e565b611cf5576040517f08c379a0000000000000000000000000000000000000000000000000000000008152600401611cec9061449b565b60405180910390fd5b6000611d0083610e86565b90508073ffffffffffffffffffffffffffffffffffffffff168473ffffffffffffffffffffffffffffffffffffffff161480611d425750611d41818561150b565b5b80611d8057508373ffffffffffffffffffffffffffffffffffffffff16611d6884610813565b73ffffffffffffffffffffffffffffffffffffffff16145b91505092915050565b8273ffffffffffffffffffffffffffffffffffffffff16611da982610e86565b73ffffffffffffffffffffffffffffffffffffffff1614611dff576040517f08c379a0000000000000000000000000000000000000000000000000000000008152600401611df69061452d565b60405180910390fd5b600073ffffffffffffffffffffffffffffffffffffffff168273ffffffffffffffffffffffffffffffffffffffff161415611e6f576040517f08c379a0000000000000000000000000000000000000000000000000000000008152600401611e66906145bf565b60405180910390fd5b611e7a838383612b89565b611e85600082611bf2565b6001600360008573ffffffffffffffffffffffffffffffffffffffff1673ffffffffffffffffffffffffffffffffffffffff1681526020019081526020016000206000828254611ed591906145df565b925050819055506001600360008473ffffffffffffffffffffffffffffffffffffffff1673ffffffffffffffffffffffffffffffffffffffff1681526020019081526020016000206000828254611f2c9190614613565b92505081905550816002600083815260200190815260200160002060006101000a81548173ffffffffffffffffffffffffffffffffffffffff021916908373ffffffffffffffffffffffffffffffffffffffff160217905550808273ffffffffffffffffffffffffffffffffffffffff168473ffffffffffffffffffffffffffffffffffffffff167fddf252ad1be2c89b69c2b068fc378daa952ba7f163c4a11628f55a4df523b3ef60405160405180910390a4611feb838383612b8e565b505050565b61208681604051602401612004919061322d565b6040516020818303038152906040527f41304fac000000000000000000000000000000000000000000000000000000007bffffffffffffffffffffffffffffffffffffffffffffffffffffffff19166020820180517bffffffffffffffffffffffffffffffffffffffffffffffffffffffff8381831617835250505050612b93565b50565b600081600001549050919050565b6121318383836040516024016120af93929190614669565b6040516020818303038152906040527fa3f5c739000000000000000000000000000000000000000000000000000000007bffffffffffffffffffffffffffffffffffffffffffffffffffffffff19166020820180517bffffffffffffffffffffffffffffffffffffffffffffffffffffffff8381831617835250505050612b93565b505050565b60008060008084519050600092505b808210156122e057600085838151811061216257612161613dae565b5b602001015160f81c60f81b9050608060f81b817effffffffffffffffffffffffffffffffffffffffffffffffffffffffffffff191610156121b1576001836121aa9190614613565b92506122cc565b60e060f81b817effffffffffffffffffffffffffffffffffffffffffffffffffffffffffffff191610156121f3576002836121ec9190614613565b92506122cb565b60f060f81b817effffffffffffffffffffffffffffffffffffffffffffffffffffffffffffff191610156122355760038361222e9190614613565b92506122ca565b60f8801b817effffffffffffffffffffffffffffffffffffffffffffffffffffffffffffff191610156122765760048361226f9190614613565b92506122c9565b60fc60f81b817effffffffffffffffffffffffffffffffffffffffffffffffffffffffffffff191610156122b8576005836122b19190614613565b92506122c8565b6006836122c59190614613565b92505b5b5b5b5b5082806122d890613e0c565b935050612145565b829350505050919050565b8173ffffffffffffffffffffffffffffffffffffffff168373ffffffffffffffffffffffffffffffffffffffff16141561235a576040517f08c379a0000000000000000000000000000000000000000000000000000000008152600401612351906146fa565b60405180910390fd5b80600560008573ffffffffffffffffffffffffffffffffffffffff1673ffffffffffffffffffffffffffffffffffffffff16815260200190815260200160002060008473ffffffffffffffffffffffffffffffffffffffff1673ffffffffffffffffffffffffffffffffffffffff16815260200190815260200160002060006101000a81548160ff0219169083151502179055508173ffffffffffffffffffffffffffffffffffffffff168373ffffffffffffffffffffffffffffffffffffffff167f17307eab39ab6107e8899845ad3d59bd9653f200f220920489ca2b5937696c318360405161244b9190613179565b60405180910390a3505050565b612463848484611d89565b61246f84848484612bbc565b6124ae576040517f08c379a00000000000000000000000000000000000000000000000000000000081526004016124a59061478c565b60405180910390fd5b50505050565b61254e8383836040516024016124cc939291906147ac565b6040516020818303038152906040527fe0e9ad4f000000000000000000000000000000000000000000000000000000007bffffffffffffffffffffffffffffffffffffffffffffffffffffffff19166020820180517bffffffffffffffffffffffffffffffffffffffffffffffffffffffff8381831617835250505050612b93565b505050565b606060405180602001604052806000815250905090565b606061257582611b7e565b6125b4576040517f08c379a00000000000000000000000000000000000000000000000000000000081526004016125ab90614863565b60405180910390fd5b60006125be612553565b905060008151116125de5760405180602001604052806000815250612609565b806125e884612611565b6040516020016125f992919061403c565b6040516020818303038152906040525b915050919050565b60606000821415612659576040518060400160405280600181526020017f3000000000000000000000000000000000000000000000000000000000000000815250905061276d565b600082905060005b6000821461268b57808061267490613e0c565b915050600a8261268491906148b2565b9150612661565b60008167ffffffffffffffff8111156126a7576126a6613431565b5b6040519080825280601f01601f1916602001820160405280156126d95781602001600182028036833780820191505090505b5090505b60008514612766576001826126f291906145df565b9150600a8561270191906148e3565b603061270d9190614613565b60f81b81838151811061272357612722613dae565b5b60200101907effffffffffffffffffffffffffffffffffffffffffffffffffffffffffffff1916908160001a905350600a8561275f91906148b2565b94506126dd565b8093505050505b919050565b61280c83838360405160240161278a93929190614914565b6040516020818303038152906040527ff362ca59000000000000000000000000000000000000000000000000000000007bffffffffffffffffffffffffffffffffffffffffffffffffffffffff19166020820180517bffffffffffffffffffffffffffffffffffffffffffffffffffffffff8381831617835250505050612b93565b505050565b6060600082519050600081141561283a57604051806020016040528060008152509150506129a4565b6000600360028361284b9190614613565b61285591906148b2565b60046128619190614959565b905060006020826128729190614613565b67ffffffffffffffff81111561288b5761288a613431565b5b6040519080825280601f01601f1916602001820160405280156128bd5781602001600182028036833780820191505090505b5090506000604051806060016040528060408152602001614d31604091399050600181016020830160005b868110156129615760038101905062ffffff818a015116603f8160121c168401518060081b905060ff603f83600c1c1686015116810190508060081b905060ff603f8360061c1686015116810190508060081b905060ff603f831686015116810190508060e01b905080845260048401935050506128e8565b50600386066001811461297b576002811461298b57612996565b613d3d60f01b6002830352612996565b603d60f81b60018303525b508484525050819450505050505b919050565b612a4182826040516024016129bf9291906149b3565b6040516020818303038152906040527f4b5c4277000000000000000000000000000000000000000000000000000000007bffffffffffffffffffffffffffffffffffffffffffffffffffffffff19166020820180517bffffffffffffffffffffffffffffffffffffffffffffffffffffffff8381831617835250505050612b93565b5050565b612a5f828260405180602001604052806000815250612d44565b5050565b612a6c82611b7e565b612aab576040517f08c379a0000000000000000000000000000000000000000000000000000000008152600401612aa290614a5c565b60405180910390fd5b80600660008481526020019081526020016000209080519060200190612ad2929190613022565b505050565b6001816000016000828254019250508190555050565b612b858282604051602401612b03929190614a7c565b6040516020818303038152906040527f319af333000000000000000000000000000000000000000000000000000000007bffffffffffffffffffffffffffffffffffffffffffffffffffffffff19166020820180517bffffffffffffffffffffffffffffffffffffffffffffffffffffffff8381831617835250505050612b93565b5050565b505050565b505050565b60008151905060006a636f6e736f6c652e6c6f679050602083016000808483855afa5050505050565b6000612bdd8473ffffffffffffffffffffffffffffffffffffffff16612d9f565b15612d37578373ffffffffffffffffffffffffffffffffffffffff1663150b7a02612c06611bea565b8786866040518563ffffffff1660e01b8152600401612c289493929190614b01565b6020604051808303816000875af1925050508015612c6457506040513d601f19601f82011682018060405250810190612c619190614b62565b60015b612ce7573d8060008114612c94576040519150601f19603f3d011682016040523d82523d6000602084013e612c99565b606091505b50600081511415612cdf576040517f08c379a0000000000000000000000000000000000000000000000000000000008152600401612cd69061478c565b60405180910390fd5b805181602001fd5b63150b7a0260e01b7bffffffffffffffffffffffffffffffffffffffffffffffffffffffff1916817bffffffffffffffffffffffffffffffffffffffffffffffffffffffff191614915050612d3c565b600190505b949350505050565b612d4e8383612dc2565b612d5b6000848484612bbc565b612d9a576040517f08c379a0000000000000000000000000000000000000000000000000000000008152600401612d919061478c565b60405180910390fd5b505050565b6000808273ffffffffffffffffffffffffffffffffffffffff163b119050919050565b600073ffffffffffffffffffffffffffffffffffffffff168273ffffffffffffffffffffffffffffffffffffffff161415612e32576040517f08c379a0000000000000000000000000000000000000000000000000000000008152600401612e2990614bdb565b60405180910390fd5b612e3b81611b7e565b15612e7b576040517f08c379a0000000000000000000000000000000000000000000000000000000008152600401612e7290614c47565b60405180910390fd5b612e8760008383612b89565b6001600360008473ffffffffffffffffffffffffffffffffffffffff1673ffffffffffffffffffffffffffffffffffffffff1681526020019081526020016000206000828254612ed79190614613565b92505081905550816002600083815260200190815260200160002060006101000a81548173ffffffffffffffffffffffffffffffffffffffff021916908373ffffffffffffffffffffffffffffffffffffffff160217905550808273ffffffffffffffffffffffffffffffffffffffff16600073ffffffffffffffffffffffffffffffffffffffff167fddf252ad1be2c89b69c2b068fc378daa952ba7f163c4a11628f55a4df523b3ef60405160405180910390a4612f9860008383612b8e565b5050565b828054612fa890613a39565b90600052602060002090601f016020900481019282612fca5760008555613011565b82601f10612fe357803560ff1916838001178555613011565b82800160010185558215613011579182015b82811115613010578235825591602001919060010190612ff5565b5b50905061301e91906130a8565b5090565b82805461302e90613a39565b90600052602060002090601f0160209004810192826130505760008555613097565b82601f1061306957805160ff1916838001178555613097565b82800160010185558215613097579182015b8281111561309657825182559160200191906001019061307b565b5b5090506130a491906130a8565b5090565b5b808211156130c15760008160009055506001016130a9565b5090565b6000604051905090565b600080fd5b600080fd5b60007fffffffff0000000000000000000000000000000000000000000000000000000082169050919050565b61310e816130d9565b811461311957600080fd5b50565b60008135905061312b81613105565b92915050565b600060208284031215613147576131466130cf565b5b60006131558482850161311c565b91505092915050565b60008115159050919050565b6131738161315e565b82525050565b600060208201905061318e600083018461316a565b92915050565b600081519050919050565b600082825260208201905092915050565b60005b838110156131ce5780820151818401526020810190506131b3565b838111156131dd576000848401525b50505050565b6000601f19601f8301169050919050565b60006131ff82613194565b613209818561319f565b93506132198185602086016131b0565b613222816131e3565b840191505092915050565b6000602082019050818103600083015261324781846131f4565b905092915050565b6000819050919050565b6132628161324f565b811461326d57600080fd5b50565b60008135905061327f81613259565b92915050565b60006020828403121561329b5761329a6130cf565b5b60006132a984828501613270565b91505092915050565b600073ffffffffffffffffffffffffffffffffffffffff82169050919050565b60006132dd826132b2565b9050919050565b6132ed816132d2565b82525050565b600060208201905061330860008301846132e4565b92915050565b613317816132d2565b811461332257600080fd5b50565b6000813590506133348161330e565b92915050565b60008060408385031215613351576133506130cf565b5b600061335f85828601613325565b925050602061337085828601613270565b9150509250929050565b600080fd5b600080fd5b600080fd5b60008083601f84011261339f5761339e61337a565b5b8235905067ffffffffffffffff8111156133bc576133bb61337f565b5b6020830191508360018202830111156133d8576133d7613384565b5b9250929050565b600080602083850312156133f6576133f56130cf565b5b600083013567ffffffffffffffff811115613414576134136130d4565b5b61342085828601613389565b92509250509250929050565b600080fd5b7f4e487b7100000000000000000000000000000000000000000000000000000000600052604160045260246000fd5b613469826131e3565b810181811067ffffffffffffffff8211171561348857613487613431565b5b80604052505050565b600061349b6130c5565b90506134a78282613460565b919050565b600067ffffffffffffffff8211156134c7576134c6613431565b5b6134d0826131e3565b9050602081019050919050565b82818337600083830152505050565b60006134ff6134fa846134ac565b613491565b90508281526020810184848401111561351b5761351a61342c565b5b6135268482856134dd565b509392505050565b600082601f8301126135435761354261337a565b5b81356135538482602086016134ec565b91505092915050565b600060208284031215613572576135716130cf565b5b600082013567ffffffffffffffff8111156135905761358f6130d4565b5b61359c8482850161352e565b91505092915050565b6000806000606084860312156135be576135bd6130cf565b5b60006135cc86828701613325565b93505060206135dd86828701613325565b92505060406135ee86828701613270565b9150509250925092565b600081519050919050565b600082825260208201905092915050565b6000819050602082019050919050565b600082825260208201905092915050565b600061364082613194565b61364a8185613624565b935061365a8185602086016131b0565b613663816131e3565b840191505092915050565b600061367a8383613635565b905092915050565b6000602082019050919050565b600061369a826135f8565b6136a48185613603565b9350836020820285016136b685613614565b8060005b858110156136f257848403895281516136d3858261366e565b94506136de83613682565b925060208a019950506001810190506136ba565b50829750879550505050505092915050565b6000602082019050818103600083015261371e818461368f565b905092915050565b60006020828403121561373c5761373b6130cf565b5b600061374a84828501613325565b91505092915050565b61375c8161324f565b82525050565b60006020820190506137776000830184613753565b92915050565b6000613788826132b2565b9050919050565b6137988161377d565b82525050565b60006020820190506137b3600083018461378f565b92915050565b6137c28161315e565b81146137cd57600080fd5b50565b6000813590506137df816137b9565b92915050565b600080604083850312156137fc576137fb6130cf565b5b600061380a85828601613325565b925050602061381b858286016137d0565b9150509250929050565b600067ffffffffffffffff8211156138405761383f613431565b5b613849826131e3565b9050602081019050919050565b600061386961386484613825565b613491565b9050828152602081018484840111156138855761388461342c565b5b6138908482856134dd565b509392505050565b600082601f8301126138ad576138ac61337a565b5b81356138bd848260208601613856565b91505092915050565b600080600080608085870312156138e0576138df6130cf565b5b60006138ee87828801613325565b94505060206138ff87828801613325565b935050604061391087828801613270565b925050606085013567ffffffffffffffff811115613931576139306130d4565b5b61393d87828801613898565b91505092959194509250565b60008060008060408587031215613963576139626130cf565b5b600085013567ffffffffffffffff811115613981576139806130d4565b5b61398d87828801613389565b9450945050602085013567ffffffffffffffff8111156139b0576139af6130d4565b5b6139bc87828801613389565b925092505092959194509250565b600080604083850312156139e1576139e06130cf565b5b60006139ef85828601613325565b9250506020613a0085828601613325565b9150509250929050565b7f4e487b7100000000000000000000000000000000000000000000000000000000600052602260045260246000fd5b60006002820490506001821680613a5157607f821691505b60208210811415613a6557613a64613a0a565b5b50919050565b7f4552433732313a20617070726f76656420717565727920666f72206e6f6e657860008201527f697374656e7420746f6b656e0000000000000000000000000000000000000000602082015250565b6000613ac7602c8361319f565b9150613ad282613a6b565b604082019050919050565b60006020820190508181036000830152613af681613aba565b9050919050565b7f4552433732313a20617070726f76616c20746f2063757272656e74206f776e6560008201527f7200000000000000000000000000000000000000000000000000000000000000602082015250565b6000613b5960218361319f565b9150613b6482613afd565b604082019050919050565b60006020820190508181036000830152613b8881613b4c565b9050919050565b7f4552433732313a20617070726f76652063616c6c6572206973206e6f74206f7760008201527f6e6572206e6f7220617070726f76656420666f7220616c6c0000000000000000602082015250565b6000613beb60388361319f565b9150613bf682613b8f565b604082019050919050565b60006020820190508181036000830152613c1a81613bde565b9050919050565b600081905092915050565b6000613c388385613c21565b9350613c458385846134dd565b82840190509392505050565b6000613c5e828486613c2c565b91508190509392505050565b7f4552433732313a207472616e736665722063616c6c6572206973206e6f74206f60008201527f776e6572206e6f7220617070726f766564000000000000000000000000000000602082015250565b6000613cc660318361319f565b9150613cd182613c6a565b604082019050919050565b60006020820190508181036000830152613cf581613cb9565b9050919050565b600081905092915050565b50565b6000613d17600083613cfc565b9150613d2282613d07565b600082019050919050565b6000613d3882613d0a565b9150819050919050565b7f4661696c656420746f207769746864726177204d617469630000000000000000600082015250565b6000613d7860188361319f565b9150613d8382613d42565b602082019050919050565b60006020820190508181036000830152613da781613d6b565b9050919050565b7f4e487b7100000000000000000000000000000000000000000000000000000000600052603260045260246000fd5b7f4e487b7100000000000000000000000000000000000000000000000000000000600052601160045260246000fd5b6000613e178261324f565b91507fffffffffffffffffffffffffffffffffffffffffffffffffffffffffffffffff821415613e4a57613e49613ddd565b5b600182019050919050565b7f4552433732313a206f776e657220717565727920666f72206e6f6e657869737460008201527f656e7420746f6b656e0000000000000000000000000000000000000000000000602082015250565b6000613eb160298361319f565b9150613ebc82613e55565b604082019050919050565b60006020820190508181036000830152613ee081613ea4565b9050919050565b7f4552433732313a2062616c616e636520717565727920666f7220746865207a6560008201527f726f206164647265737300000000000000000000000000000000000000000000602082015250565b6000613f43602a8361319f565b9150613f4e82613ee7565b604082019050919050565b60006020820190508181036000830152613f7281613f36565b9050919050565b7f45524337323155524953746f726167653a2055524920717565727920666f722060008201527f6e6f6e6578697374656e7420746f6b656e000000000000000000000000000000602082015250565b6000613fd560318361319f565b9150613fe082613f79565b604082019050919050565b6000602082019050818103600083015261400481613fc8565b9050919050565b600061401682613194565b6140208185613c21565b93506140308185602086016131b0565b80840191505092915050565b6000614048828561400b565b9150614054828461400b565b91508190509392505050565b600061406c838561319f565b93506140798385846134dd565b614082836131e3565b840190509392505050565b600060208201905081810360008301526140a8818486614060565b90509392505050565b7f4e6f7420656e6f756768204d6174696320706169640000000000000000000000600082015250565b60006140e760158361319f565b91506140f2826140b1565b602082019050919050565b60006020820190508181036000830152614116816140da565b9050919050565b60008190508160005260206000209050919050565b6000815461413f81613a39565b6141498186613c21565b945060018216600081146141645760018114614175576141a8565b60ff198316865281860193506141a8565b61417e8561411d565b60005b838110156141a057815481890152600182019150602081019050614181565b838801955050505b50505092915050565b60006141bd8286614132565b91506141c9828561400b565b91506141d58284614132565b9150819050949350505050565b7f7b2272616e676554696d65223a20220000000000000000000000000000000000600082015250565b6000614218600f83613c21565b9150614223826141e2565b600f82019050919050565b7f222c20226465736372697074696f6e223a20224361722053686172696e67205360008201527f657276696365222c2022696d616765223a2022646174613a696d6167652f737660208201527f672b786d6c3b6261736536342c00000000000000000000000000000000000000604082015250565b60006142b0604d83613c21565b91506142bb8261422e565b604d82019050919050565b7f222c226c656e677468223a220000000000000000000000000000000000000000600082015250565b60006142fc600c83613c21565b9150614307826142c6565b600c82019050919050565b7f227d000000000000000000000000000000000000000000000000000000000000600082015250565b6000614348600283613c21565b915061435382614312565b600282019050919050565b60006143698261420b565b9150614375828661400b565b9150614380826142a3565b915061438c828561400b565b9150614397826142ef565b91506143a3828461400b565b91506143ae8261433b565b9150819050949350505050565b7f646174613a6170706c69636174696f6e2f6a736f6e3b6261736536342c000000600082015250565b60006143f1601d83613c21565b91506143fc826143bb565b601d82019050919050565b6000614412826143e4565b915061441e828461400b565b915081905092915050565b7f4552433732313a206f70657261746f7220717565727920666f72206e6f6e657860008201527f697374656e7420746f6b656e0000000000000000000000000000000000000000602082015250565b6000614485602c8361319f565b915061449082614429565b604082019050919050565b600060208201905081810360008301526144b481614478565b9050919050565b7f4552433732313a207472616e736665722066726f6d20696e636f72726563742060008201527f6f776e6572000000000000000000000000000000000000000000000000000000602082015250565b600061451760258361319f565b9150614522826144bb565b604082019050919050565b600060208201905081810360008301526145468161450a565b9050919050565b7f4552433732313a207472616e7366657220746f20746865207a65726f2061646460008201527f7265737300000000000000000000000000000000000000000000000000000000602082015250565b60006145a960248361319f565b91506145b48261454d565b604082019050919050565b600060208201905081810360008301526145d88161459c565b9050919050565b60006145ea8261324f565b91506145f58361324f565b92508282101561460857614607613ddd565b5b828203905092915050565b600061461e8261324f565b91506146298361324f565b9250827fffffffffffffffffffffffffffffffffffffffffffffffffffffffffffffffff0382111561465e5761465d613ddd565b5b828201905092915050565b6000606082019050818103600083015261468381866131f4565b90506146926020830185613753565b81810360408301526146a481846131f4565b9050949350505050565b7f4552433732313a20617070726f766520746f2063616c6c657200000000000000600082015250565b60006146e460198361319f565b91506146ef826146ae565b602082019050919050565b60006020820190508181036000830152614713816146d7565b9050919050565b7f4552433732313a207472616e7366657220746f206e6f6e20455243373231526560008201527f63656976657220696d706c656d656e7465720000000000000000000000000000602082015250565b600061477660328361319f565b91506147818261471a565b604082019050919050565b600060208201905081810360008301526147a581614769565b9050919050565b600060608201905081810360008301526147c681866131f4565b90506147d560208301856132e4565b81810360408301526147e781846131f4565b9050949350505050565b7f4552433732314d657461646174613a2055524920717565727920666f72206e6f60008201527f6e6578697374656e7420746f6b656e0000000000000000000000000000000000602082015250565b600061484d602f8361319f565b9150614858826147f1565b604082019050919050565b6000602082019050818103600083015261487c81614840565b9050919050565b7f4e487b7100000000000000000000000000000000000000000000000000000000600052601260045260246000fd5b60006148bd8261324f565b91506148c88361324f565b9250826148d8576148d7614883565b5b828204905092915050565b60006148ee8261324f565b91506148f98361324f565b92508261490957614908614883565b5b828206905092915050565b6000606082019050818103600083015261492e81866131f4565b9050818103602083015261494281856131f4565b90506149516040830184613753565b949350505050565b60006149648261324f565b915061496f8361324f565b9250817fffffffffffffffffffffffffffffffffffffffffffffffffffffffffffffffff04831182151516156149a8576149a7613ddd565b5b828202905092915050565b600060408201905081810360008301526149cd81856131f4565b905081810360208301526149e181846131f4565b90509392505050565b7f45524337323155524953746f726167653a2055524920736574206f66206e6f6e60008201527f6578697374656e7420746f6b656e000000000000000000000000000000000000602082015250565b6000614a46602e8361319f565b9150614a51826149ea565b604082019050919050565b60006020820190508181036000830152614a7581614a39565b9050919050565b60006040820190508181036000830152614a9681856131f4565b9050614aa560208301846132e4565b9392505050565b600081519050919050565b600082825260208201905092915050565b6000614ad382614aac565b614add8185614ab7565b9350614aed8185602086016131b0565b614af6816131e3565b840191505092915050565b6000608082019050614b1660008301876132e4565b614b2360208301866132e4565b614b306040830185613753565b8181036060830152614b428184614ac8565b905095945050505050565b600081519050614b5c81613105565b92915050565b600060208284031215614b7857614b776130cf565b5b6000614b8684828501614b4d565b91505092915050565b7f4552433732313a206d696e7420746f20746865207a65726f2061646472657373600082015250565b6000614bc560208361319f565b9150614bd082614b8f565b602082019050919050565b60006020820190508181036000830152614bf481614bb8565b9050919050565b7f4552433732313a20746f6b656e20616c7265616479206d696e74656400000000600082015250565b6000614c31601c8361319f565b9150614c3c82614bfb565b602082019050919050565b60006020820190508181036000830152614c6081614c24565b905091905056fe0a2d2d2d2d2d2d2d2d2d2d2d2d2d2d2d2d2d2d2d2d2d2d2d2d2d2d2d2d2d2d2d2d2d2d2d2d2d2d2d2d2d2d2d2d2d2d2d2d2d2d2d2d2d2d2d2d5265676973746572696e672025732e2573206f6e2074686520636f6e7472616374207769746820746f6b656e49442025642d2d2d2d2d2d2d2d2d2d2d2d2d2d2d2d2d2d2d2d2d2d2d2d2d2d2d2d2d2d2d2d2d2d2d2d2d2d2d2d2d2d2d2d2d2d2d2d2d2d2d2d2d2d2d2d0a257320686173207365742061207265636f726420666f72207468652020646f6d61696e2025734142434445464748494a4b4c4d4e4f505152535455565758595a6162636465666768696a6b6c6d6e6f707172737475767778797a303132333435363738392b2fa2646970667358221220e43534465d4c07867eacaa6d4d6198bb82ad113f5fe17deafff939b6ff571ac164736f6c634300080a00333c73766720786d6c6e733d22687474703a2f2f7777772e77332e6f72672f323030302f737667222076657273696f6e3d22312e31222077696474683d2233303022206865696768743d22333030222076696577426f783d223020302033303020333030223e3c7265637420783d22302220793d2230222077696474683d2233303022206865696768743d22333030222066696c6c3d2223666666666666222f3e3c67207472616e73666f726d3d227363616c6528313229223e3c67207472616e73666f726d3d227472616e736c61746528302c3029223e3c646566733e3c6c696e6561724772616469656e74206772616469656e74556e6974733d227573657253706163654f6e557365222078313d2230222079313d2230222078323d2230222079323d223235222069643d226731223e3c73746f70206f66667365743d223025222073746f702d636f6c6f723d2223616634646430222f3e3c73746f70206f66667365743d2231303025222073746f702d636f6c6f723d2223383037356533222f3e3c2f6c696e6561724772616469656e743e3c2f646566733e3c706174682066696c6c2d72756c653d226576656e6f64642220643d224d313020304c313020324c313120324c313120305a4d313220304c313220314c313320314c313320324c313220324c313220344c313320344c313320334c313420334c313420344c313520344c313520354c313120354c313120364c313020364c313020344c313120344c313120334c3820334c3820344c3920344c3920354c3820354c3820374c3920374c3920384c3620384c3620394c3820394c382031324c362031324c362031314c372031314c372031304c362031304c362031314c332031314c332031304c322031304c322031324c312031324c312031334c302031334c302031374c312031374c312031334c322031334c322031354c342031354c342031364c322031364c322031374c342031374c342031364c352031364c352031374c382031374c382031394c392031394c392032304c382032304c382032354c392032354c392032314c31302032314c31302032304c31322032304c31322031394c31332031394c31332032304c31342032304c31342032314c31352032314c31352032334c31362032334c31362032344c31342032344c31342032324c31332032324c31332032314c31312032314c31312032324c31302032324c31302032334c31312032334c31312032344c31322032344c31322032354c31362032354c31362032344c32322032344c32322032354c32352032354c32352032344c32342032344c32342032334c32352032334c32352032314c32332032314c32332032324c32322032324c32322032334c32312032334c32312032314c32322032314c32322031394c32352031394c32352031354c32332031354c32332031344c32352031344c32352031324c32332031324c32332031344c32322031344c32322031354c32332031354c32332031364c32342031364c32342031384c32322031384c32322031394c32312031394c32312031374c32322031374c32322031364c31382031364c31382031354c31392031354c31392031344c32302031344c32302031354c32312031354c32312031334c32322031334c32322031324c31392031324c31392031344c31372031344c31372031334c31382031334c31382031324c31372031324c31372031314c31392031314c31392031304c32302031304c32302031314c32312031314c323120394c323220394c323220384c323120384c323120394c323020394c323020384c313920384c31392031304c31382031304c313820384c313720384c313720364c313620364c313620384c313420384c313420374c313520374c313520354c313620354c313620334c313720334c313720324c313620324c313620314c313720314c313720304c313620304c313620314c313520314c313520304c313420304c313420314c313320314c313320305a4d3820314c3820324c3920324c3920315a4d313420324c313420334c313620334c313620325a4d3920364c3920374c313020374c313020365a4d313120364c313120374c313220374c313220384c313320384c313320374c313420374c313420364c313320364c313320374c313220374c313220365a4d3020384c3020394c3520394c3520385a4d313020384c313020394c3920394c392031324c382031324c382031334c392031334c392031344c31302031344c31302031354c31312031354c31312031334c31322031334c31322031344c31352031344c31352031324c31362031324c31362031314c31332031314c31332031324c31322031324c313220394c313120394c313120385a4d313620384c313620394c313720394c313720385a4d323320384c323320394c323420394c32342031304c32352031304c323520394c323420394c323420385a4d313020394c31302031314c31312031314c313120395a4d313320394c31332031304c31342031304c313420395a4d32322031304c32322031314c32332031314c32332031305a4d322031324c322031334c332031334c332031325a4d352031324c352031334c342031334c342031344c352031344c352031334c362031334c362031344c372031344c372031354c362031354c362031364c372031364c372031354c382031354c382031374c31322031374c31322031384c31342031384c31342031374c31352031374c31352031364c31362031364c31362031354c31372031354c31372031344c31362031344c31362031354c31332031354c31332031364c392031364c392031354c382031354c382031344c372031344c372031334c362031334c362031325a4d392031324c392031334c31312031334c31312031325a4d31332031324c31332031334c31342031334c31342031325a4d31372031374c31372032304c32302032304c32302031375a4d392031384c392031394c31302031394c31302031385a4d31352031384c31352031394c31342031394c31342032304c31352032304c31352032314c31362032314c31362031385a4d31382031384c31382031394c31392031394c31392031385a4d31372032314c31372032324c31362032324c31362032334c31372032334c31372032324c31392032324c31392032334c32302032334c32302032315a4d31312032324c31312032334c31322032334c31322032344c31332032344c31332032334c31322032334c31322032325a4d32332032324c32332032334c32322032334c32322032344c32332032344c32332032334c32342032334c32342032325a4d3020304c3020374c3720374c3720305a4d3120314c3120364c3620364c3620315a4d3220324c3220354c3520354c3520325a4d313820304c313820374c323520374c323520305a4d313920314c313920364c323420364c323420315a4d323020324c323020354c323320354c323320325a4d302031384c302032354c372032354c372031385a4d312031394c312032344c362032344c362031395a4d322032304c322032334c352032334c352032305a222066696c6c3d2275726c2823673129222f3e3c2f673e3c2f673e3c7465787420783d223530252220793d223835252220646f6d696e616e742d626173656c696e653d226d6964646c652220746578742d616e63686f723d226d6964646c652220666f6e742d73697a653d223239222066696c7465723d2275726c222066696c6c3d22233139313937302220666f6e742d66616d696c793d22506c7573204a616b617274612053616e732c44656a6156752053616e732c4e6f746f20436f6c6f7220456d6f6a692c4170706c6520436f6c6f7220456d6f6a692c73616e732d73657269662220666f6e742d7765696768743d22626f6c64223e",
	"linkReferences": {},
	"deployedLinkReferences": {}
}